:020000040800F2
:10000000B80B00200101000835270008D925000899
:1000100031270008B9060008A930000800000000D8
:10002000000000000000000000000000E5270008BC
:100030001D07000800000000A52700083D28000853
:100040001B0100081B0100081B0100081B01000820
:100050001B0100081B0100081B0100081B01000810
:100060001B0100081B0100081B0100081B01000800
:100070001B0100081B0100081B0100081B010008F0
:10008000BD0600081B0100081B0100081B01000839
:100090001B0100081B0100081B0100081B010008D0
:1000A0001B0100081B0100081B0100081B010008C0
:1000B0001B0100081B0100081B0100081B010008B0
:1000C0001B0100081B0100081B0100081B010008A0
:1000D0001B01000889300008993000081B01000846
:1000E0001B0100081B0100081B010008DFF80CD0F1
:1000F00000F03CFA00480047E5350008B80B002046
:100100000648804706480047FEE7FEE7FEE7FEE7B1
:10011000FEE7FEE7FEE7FEE7FEE7FEE7B52800089C
:10012000ED00000840EA01039B0703D009E008C97D
:10013000121F08C0042AFAD203E011F8013B00F8AC
:10014000013B521EF9D27047D2B201E000F8012BF8
:10015000491EFBD270470022F6E710B513460A4647
:1001600004461946FFF7F0FF204610BD30B50B4698
:10017000014600202022012409E021FA02F59D42D7
:1001800005D303FA02F5491B04FA02F52844151EAB
:10019000A2F10102F1DC30BD2DE9F05F054600203F
:1001A00092469B4688460646814640241BE02846E8
:1001B00041464746224600F000FA53465A46C01AC6
:1001C000914110D311461846224600F0E7F92D1A46
:1001D00067EB01084F4622460120002100F0DEF9BE
:1001E00017EB00094E41201EA4F10104DFDC484654
:1001F00031462A464346BDE8F09F2DE9FE4F804632
:1002000081EA0300C00F0C46009021F0004123F06A
:100210000045B8EB0200A94105D240462146904670
:100220001C460B46024623F00040104347D0270DE2
:10023000C7F30A00C3F30A510290401A0190402804
:100240006BDAC3F3130040F4801B0098924620B190
:100250000023D2EB030A63EB0B0B01985946C0F164
:100260004002504600F09AF906460D46504659465F
:10027000019A00F0B2F910EB08006141002487EA0E
:10028000115284EAE7731A4340D0009A62B3019A8C
:10029000012A4FEA075215DC001B61EB02014FF007
:1002A000004202EA0752CDE90042001C41F58011EC
:1002B00032462B4600F0B2F903B0BDE8F08F40465D
:1002C0002146F9E7001B61EB0201001C41F5801398
:1002D00000185B412018A2F5001747EB030140EA24
:1002E000D570B6196D4111E06D084FEA360645EA42
:1002F000C0754FEA0752001B61EB0201001C41F57B
:10030000801149084FEA30000019514132462B460E
:1003100003B0BDE8F04F00F072B900980122400030
:100320000023D0EB020263EBE073009821464FEA12
:10033000E074B8EB000061EB0401E9E783F00043EF
:100340005BE781F0004158E72DE9FE4F81EA0304A5
:1003500004F0004421F0004100944FF0000B23F022
:10036000004350EA01045ED052EA03045BD0C3F3B9
:100370000A54C1F30A552C44A4F2F3340194A0FBAF
:100380000254C1F3130141F48011C3F3130343F486
:10039000801301FB024400FB034E840A970A44EADF
:1003A000815447EA8357A4FB076802958D0A05FB31
:1003B00007854FEA932C04FB0C542705029D4FEA56
:1003C000065847EA1637B5EB08056EEB070C870EA3
:1003D000920E47EA811742EA8312A7FB0201B6EBAD
:1003E0000B0164EB00042B0D43EA0C335E1844EB65
:1003F0001C50DA465146E7FB0201C5F313044FEAED
:100400000B3343EA14534FEA0432019C43EA0603D8
:10041000A4F10C040294009CCDE900B400F0FEF8B5
:1004200003B0BDE8F08F00200146F9E72DE9F04D5B
:1004300081EA030404F0004B21F0004514464FF01C
:10044000000A23F0004150EA050220D054EA0102DC
:100450001DD0C5F30A570246C5F31303C1F31300B9
:10046000C1F30A5640F4801543F48013A7EB060845
:10047000101BD64608F2FD3873EB050002D308F1D5
:10048000010801E092185B41B8F1000F03DA002087
:100490000146BDE8F08D00204FF4801106468446E9
:1004A0000EE0171B73EB050705D3121B63EB050367
:1004B00006434CEA010C49084FEA300092185B41B0
:1004C00050EA0107EDD152EA030012D082EA04009B
:1004D00083EA0501084305D0101BAB4106D2012277
:1004E000002306E000224FF0004302E06FF001021B
:1004F00053101AEB06004CEB085110EB0A0041EBCD
:100500000B01BDE8F04D00F07AB8C1F30A52C1F317
:10051000130140F2FF3341F480119A4202DA0020C5
:100520000146704740F233439A42A2F2334202DC62
:10053000524200F042B800F031B8000030B5041E5D
:1005400071F1000404DB4FF00044404264EB010110
:10055000141E73F1000405DB1C464FF000435242A9
:1005600063EB0403994208BF904230BD1CB50948B3
:100570000090094801900546009C06E0E06840F0C4
:10058000010394E8070098471034AC42F6D3FFF714
:10059000B1FD00004C4900086C490008202A04DB2A
:1005A000203A00FA02F1002070479140C2F1200386
:1005B00020FA03F3194390407047202A04DB203AC5
:1005C00021FA02F00021704721FA02F3D040C2F173
:1005D00020029140084319467047202A06DBCB17BA
:1005E000203A41FA02F043EAE07306E041FA02F3EE
:1005F000D040C2F12002914008431946704710B51F
:10060000141E73F1000408DA401C41F10001921835
:100610005B411A4301D120F0010010BD2DE9F04DDE
:1006200092469B4611B1B1FA81F202E0B0FA80F233
:1006300020329046FFF7B2FF04460F4640EA0A0018
:1006400041EA0B0153465A46084313D0114653EA78
:10065000010019D0C8F140025046FFF7AEFF054631
:100660000E46504659464246FFF798FF084305D0CC
:10067000012004E020463946BDE8F08D0020054306
:1006800046EAE0762C4337430A986305E40AA0EB78
:1006900008000022FD0A44EA47540A3002D500202F
:1006A0000146E9E7010510196941DDE9084500192E
:1006B0006941BDE8F04DA2E7FFE7FEE780B540F2F3
:1006C0002000C2F2000000F0FBF880BD84B003906F
:1006D0000291019200930398C16B026C012090403B
:1006E000486000980399096848600398406810289A
:1006F00009D1FFE701980399096888600298039976
:100700000968C86008E00298039909688860019840
:1007100003990968C860FFE704B07047704700009C
:1007200072B6FFE7FEE7000083B0019000208DF86D
:100730000300019890F8210002280DD0FFE70199ED
:1007400004208863FFE70199002081F82000FFE77B
:1007500001208DF80B0021E001980168086820F065
:100760000E00086001980168086820F00100086028
:100770000198C16B026C012090404860FFE701992D
:10078000012081F82100FFE70199002081F8200075
:10079000FFE79DF803008DF80B00FFE79DF80B00C5
:1007A00003B0704780B588B0079000208DF81B001B
:1007B000079890F82100022807D0FFE70799042046
:1007C000886301208DF81B0076E0079801680868AF
:1007D00020F00E00086007980168086820F001000A
:1007E0000860079800680821C4F20201884203D11A
:1007F000FFE70120059047E0079800681C21C4F23C
:100800000201884203D1FFE71020049039E00798E5
:1008100000683021C4F20201884204D1FFE74FF49E
:10082000807003902AE0079800684421C4F2020116
:10083000884204D1FFE74FF4805002901BE00798F4
:1008400000685821C4F20201884204D1FFE74FF446
:10085000803001900CE0079801686C22C4F202021B
:100860004FF08070914208BF4FF480100190FFE775
:1008700001980290FFE702980390FFE70398049025
:10088000FFE704980590FFE705980421C4F20201F0
:1008900008600799012081F82100FFE707990020EF
:1008A00081F82000FFE70798406B20B1FFE7079829
:1008B000416B8847FFE7FFE79DF81B0008B080BD4C
:1008C00080B58EB00D900D98C06B00680C900D989F
:1008D000006800680B900C980D99096CC84040079F
:1008E000002875D5FFE79DF82C00400700286FD53C
:1008F000FFE70D98006800688006002807D4FFE72E
:100900000D980168086820F004000860FFE70D9862
:1009100000680821C4F20201884203D1FFE70420E5
:100920000A9047E00D9800681C21C4F20201884239
:1009300003D1FFE74020099039E00D98006830218D
:10094000C4F20201884204D1FFE74FF480600890AE
:100950002AE00D9800684421C4F20201884204D1C3
:10096000FFE74FF4804007901BE00D980068582186
:10097000C4F20201884204D1FFE74FF480200690C0
:100980000CE00D9801686C22C4F202024FF0806006
:10099000914208BF4FF480000690FFE70698079049
:1009A000FFE707980890FFE708980990FFE7099884
:1009B0000A90FFE70A980421C4F2020108600D982A
:1009C000C06A20B1FFE70D98C16A8847FFE7B8E029
:1009D0000C980D99096CC8408007002840F1808070
:1009E000FFE79DF82C008007002879D5FFE70D98D8
:1009F00000680068800600280BD4FFE70D980168A6
:100A0000086820F00A0008600D99012081F8210093
:100A1000FFE70D9800680821C4F20201884203D163
:100A2000FFE70220059047E00D9800681C21C4F202
:100A30000201884203D1FFE72020049039E00D989D
:100A400000683021C4F20201884204D1FFE74FF46C
:100A5000007003902AE00D9800684421C4F202015E
:100A6000884204D1FFE74FF4005002901BE00D983C
:100A700000685821C4F20201884204D1FFE74FF414
:100A8000003001900CE00D9801686C22C4F2020263
:100A90004FF00070914208BF4FF400100190FFE743
:100AA00001980290FFE702980390FFE703980490F3
:100AB000FFE704980590FFE705980421C4F20201BE
:100AC0000860FFE70D99002081F82000FFE70D98EE
:100AD000806A20B1FFE70D98816A8847FFE72FE021
:100AE0000C980D99096CC8400007002827D5FFE72E
:100AF0009DF82C000007002821D5FFE70D9801681C
:100B0000086820F00E0008600D98C26B016C01208F
:100B100000FA01F151600D9988630D9981F8210067
:100B2000FFE70D99002081F82000FFE70D98006B8A
:100B300020B1FFE70D98016B8847FFE7FFE7FFE76C
:100B4000FFE70EB080BD000083B001900020009050
:100B5000019820B9FFE701208DF80B0047E00199CB
:100B600008684FF6F872CBF6FD7210444CF6CD4291
:100B7000CCF6CC42A0FB02026FF0030000EA920028
:100B8000086401990020C4F20200C86301990220A0
:100B900081F821000198006800680090009843F6F1
:100BA000F0718843009001994868D1F808C0CB687B
:100BB0000A6940EA0C00184310434A6910438A69E5
:100BC0001043C969014300980843009000980199B7
:100BD00009680860019900208863019A012182F860
:100BE0002110019981F820008DF80B00FFE79DF896
:100BF0000B0003B07047000080B586B004900391ED
:100C00000292019300208DF80300FFE7049890F80A
:100C10002000012804D1FFE702208DF817004CE0E6
:100C20000499012081F82000FFE7FFE7049890F87D
:100C30002100012832D1FFE70499022081F8210028
:100C400004990020886304980168086820F0010076
:100C5000086004980399029A019BFFF737FD0498F6
:100C6000C06A38B1FFE704980168086840F00E00D8
:100C700008600CE004980168086820F0040008602F
:100C800004980168086840F00A000860FFE70498CB
:100C90000168086840F00100086009E0FFE7049976
:100CA000002081F82000FFE702208DF80300FFE715
:100CB0009DF803008DF81700FFE79DF8170006B0B8
:100CC00080BD000090B00F900E9100200D90099013
:100CD000FFE70E9800680D99C840002800F07F815A
:100CE000FFE70D99012088400C900E9800680C9940
:100CF00008400B900B980C99884240F06C81FFE7FC
:100D00000E9840680590002851D0FFE7059801280B
:100D10003AD0FFE7059802283FD0FFE7059803285F
:100D20005FD0FFE70598112832D0FFE70598122819
:100D300038D0FFE705980021C1F21101884236D072
:100D4000FFE705980021C1F2120188422FD0FFE78A
:100D500005980021C1F22101884228D0FFE70598BB
:100D60000021C1F22201884221D0FFE7059800212D
:100D7000C1F2310188421AD0FFE705980021C1F283
:100D80003201884213D02FE00E98C06809902CE001
:100D90000E98C0680430099027E00E98C0680830AB
:100DA000099022E00E98C0680C3009901DE00E9862
:100DB000806818B9FFE70420099011E00E98806858
:100DC000012806D1FFE7082009900C980F990861C7
:100DD00005E0082009900C980F994861FFE7FFE7AC
:100DE00003E00020099000E0FFE70B98FF2803D8FC
:100DF000FFE70F98049003E00F9804300490FFE79A
:100E0000049808900B98FF2804D8FFE70D988000FD
:100E1000039006E00D996FF01F0000EB8100039036
:100E2000FFE70398079008980068079A0F21914000
:100E30008843099991400843089908600E98C07941
:100E4000C006002840F1C680FFE7FFE741F2180026
:100E5000C4F20200016841F001010160006800F085
:100E6000010006900698FFE70D9820F00300082186
:100E7000C4F2010140580A900D9800F0030081006F
:100E80000F2000FA01F10A9888430A900F9840F663
:100E90000001C4F20101884203D1FFE70020029063
:100EA00026E00F9840F60041C4F20101884203D1C8
:100EB000FFE70120019018E00F9841F20001C4F211
:100EC0000101884203D1FFE7022000900AE00F9958
:100ED00041F20042C4F201020420914208BF032003
:100EE0000090FFE700980190FFE701980290FFE76C
:100EF00002980D9901F00301890000FA01F10A98A6
:100F000008430A900A980D9921F003010822C4F2BF
:100F1000010288500E988079C006002809D5FFE7A5
:100F20000B9A40F20841C4F20101086810430860BE
:100F300008E00B9A40F20841C4F2010108689043AE
:100F40000860FFE70E9880798006002809D5FFE742
:100F50000B9A40F20C41C4F201010868104308608A
:100F600008E00B9A40F20C41C4F20101086890437A
:100F70000860FFE70E9880798007002809D5FFE711
:100F80000B9A40F20441C4F2010108681043086062
:100F900008E00B9A40F20441C4F201010868904352
:100FA0000860FFE70E988079C00748B1FFE70B9A09
:100FB00040F20041C4F2010108681043086008E0F3
:100FC0000B9A40F20041C4F20101086890430860A6
:100FD000FFE7FFE7FFE70D9801300D9079E610B0CD
:100FE0007047000082B00190ADF802108DF801202A
:100FF0009DF8010028B1FFE7BDF8020001990861E2
:1010000005E0BDF80200000401990861FFE702B0A5
:101010007047000040F2B470C2F2000000687047F0
:1010200040F21400C2F20000027840F2B471C2F241
:1010300000010868104408607047000080B542F263
:101040000001C4F20201086840F0100008600320AB
:1010500000F096F80F2000F005F800F03BF80020B3
:1010600080BD000080B582B0009040F20000C2F266
:101070000000006840F21401C2F200010A784FF447
:101080007A71B1FBF2F1B0FBF1F000F073FD20B129
:10109000FFE701208DF8070018E000980F280DD811
:1010A000FFE700994FF0FF30002200F04FF8009862
:1010B00040F21801C2F20001086003E001208DF83F
:1010C000070003E000208DF80700FFE79DF8070008
:1010D00002B080BD83B0FFE741F21800C4F2020005
:1010E000016841F001010160006800F00100029018
:1010F0000298FFE7FFE741F21C00C4F2020001681A
:1011000041F080510160006800F08050019001982A
:10111000FFE7FFE70421C4F201010868009000988E
:1011200020F0E0600090009840F00070009000987F
:101130000860FFE703B0704780B582B08DF8070004
:101140009DF9070001F0B2FF02B080BD80B586B006
:101150008DF81700049103920020029001F0BEFF69
:1011600002909DF91700019002980499039A01F0EA
:10117000E3FA0146019801F0B9FF06B080BD000016
:1011800080B582B00190019801F0D2FF02B080BD1D
:1011900080B584B002900191029820B9FFE7012048
:1011A0008DF80F001BE1019842F20001C4F2020128
:1011B000096801F00701884216D9FFE742F20000F2
:1011C000C4F20200016821F00701019A1143016095
:1011D000006800F007000199884204D0FFE7012071
:1011E0008DF80F00FBE0FFE70298007880070028E9
:1011F0002AD5FFE7029800784007002809D5FFE7C5
:1012000041F20401C4F20201086840F4E0600860A1
:10121000FFE7029800780007002809D5FFE741F2B0
:101220000401C4F20201086840F460500860FFE75E
:1012300041F20401C4F20201086820F0F000029AB1
:10124000926810430860FFE702980078C007002802
:1012500060D0FFE70298406801280ED1FFE741F215
:101260000000C4F2020000688003002804D4FFE7F5
:1012700001208DF80F00B2E021E0029840680228BA
:101280000ED1FFE741F20000C4F2020000688001C5
:10129000002804D4FFE701208DF80F009FE00DE047
:1012A00041F20000C4F2020000688007002804D464
:1012B000FFE701208DF80F0091E0FFE7FFE741F223
:1012C0000401C4F20201086820F00300029A526887
:1012D00010430860FFF79EFE0090FFE741F2040014
:1012E000C4F20200006800F00C0002994968B0EBFB
:1012F000810F0ED0FFE7FFF78DFE0099401A41F2F3
:101300008931884204D3FFE703208DF80F0066E09F
:10131000E4E7FFE7019842F20001C4F20201096824
:1013200001F00701884216D2FFE742F20000C4F242
:101330000200016821F00701019A11430160006871
:1013400000F007000199884204D0FFE701208DF8E2
:101350000F0044E0FFE702980078400700280CD512
:10136000FFE741F20401C4F20201086820F4E060E2
:10137000029AD26810430860FFE7029800780007DD
:1013800000280DD5FFE741F20401C4F2020108680C
:1013900020F46050029A126940EAC2000860FFE738
:1013A00000F04CF841F20401C4F202010968C9B22C
:1013B0000A0944F6A001C0F60001895CC84040F269
:1013C0000001C2F20001086040F21800C2F2000001
:1013D0000068FFF747FE00208DF80F00FFE79DF83B
:1013E0000F0004B080BD000040F20000C2F2000017
:1013F0000068704780B5FFF7F7FF41F20401C4F2BF
:1014000002010968C1F3022244F6B001C0F60001EE
:10141000895CC84080BD000080B5FFF7E5FF41F260
:101420000401C4F202010968C1F3C22244F6B0010A
:10143000C0F60001895CC84080BD000086B0002075
:101440000590049003900290019041F20400C4F2D0
:10145000020000680590059800F00C00014600911C
:1014600000283FD0FFE70098042804D0FFE7009849
:10147000082806D037E042F20040C0F2F4000190A4
:1014800037E00598C0F3834144F6B800C0F6000089
:10149000405C02909DF81600C007C0B1FFE741F222
:1014A0000400C4F202000068C0F3404144F6C800E2
:1014B000C0F60000405C0490029842F20041C0F285
:1014C000F40148430499B0FBF1F0039007E002985F
:1014D00040F60011C0F23D0148430390FFE7039836
:1014E000019006E0FFE741F20020C0F27A0001908F
:1014F000FFE7019806B0704780B586B00490049865
:1015000020B9FFE701208DF817002EE3049800783A
:10151000C007002800F0AE80FFE741F20400C4F2EB
:101520000200006800F00C00042813D0FFE741F22D
:101530000400C4F20200006800F00C0008281BD16F
:10154000FFE741F20400C4F202000068C003002873
:1015500012D5FFE741F20000C4F2020000688003E8
:10156000002808D5FFE70498406820B9FFE701206C
:101570008DF81700F9E27CE0FFE704984068B0F5C9
:10158000803F09D1FFE741F20001C4F2020108687F
:1015900040F48030086032E00498406868B9FFE7A2
:1015A00041F20001C4F20201086820F480300860B2
:1015B000086820F48020086020E004984068B0F5B6
:1015C000A02F0DD1FFE741F20001C4F2020108682B
:1015D00040F480200860086840F4803008600CE027
:1015E00041F20001C4F20201086820F48030086072
:1015F000086820F480200860FFE7FFE7FFE7FFE7C7
:1016000004984068D0B1FFE7FFF704FD0390FFE7BF
:1016100041F20000C4F202000068800300280CD4EC
:10162000FFE7FFF7F7FC0399401A652804D3FFE7AB
:1016300003208DF8170098E2EAE719E0FFF7EAFCCB
:101640000390FFE741F20000C4F20200006880034B
:1016500000280CD5FFE7FFF7DDFC0399401A652849
:1016600004D3FFE703208DF817007EE2EAE7FFE7E7
:10167000FFE7FFE7049800788007002840F18D809D
:10168000FFE741F20400C4F20200006810F00C0F02
:1016900013D0FFE741F20400C4F20200006800F03A
:1016A0000C00082829D1FFE741F20400C4F202002F
:1016B0000068C003002820D4FFE741F20000C4F214
:1016C000020000688007002809D5FFE70498006938
:1016D000012804D0FFE701208DF8170045E241F210
:1016E0000001C4F20201086820F0F800049A52696F
:1016F00040EAC2000860FFE74EE00498006958B372
:10170000FFE70021C4F2422101200860FFF782FCBC
:101710000390FFE741F20000C4F202000068800776
:1017200000280CD4FFE7FFF775FC0399401A032843
:1017300004D3FFE703208DF8170016E2EAE741F231
:101740000001C4F20201086820F0F800049A52690E
:1017500040EAC20008601EE00021C4F242210020DD
:101760000860FFF757FC0390FFE741F20000C4F266
:1017700002000068800700280CD5FFE7FFF74AFC4D
:101780000399401A032804D3FFE703208DF81700BC
:10179000EBE1EAE7FFE7FFE7FFE7049800780007DF
:1017A000002848D5FFE70498806918B3FFE740F2A6
:1017B0008041C4F2422101200860FFF72BFC039016
:1017C000FFE741F22400C4F202000068800700280D
:1017D0000CD4FFE7FFF71EFC0399401A032804D33B
:1017E000FFE703208DF81700BFE1EAE7012000F0D2
:1017F000DBFF1FE040F28041C4F24221002008607C
:10180000FFF708FC0390FFE741F22400C4F2020056
:101810000068800700280CD5FFE7FFF7FBFB039962
:10182000401A032804D3FFE703208DF817009CE13A
:10183000EAE7FFE7FFE7049800784007002840F157
:10184000D880FFE700208DF8070041F21C00C4F2A9
:1018500002000068C000002813D4FFE7FFE741F250
:101860001C00C4F20200016841F080510160006870
:1018700000F0805000900098FFE701208DF80700ED
:10188000FFE747F20000C4F200000068C00500282E
:1018900022D4FFE747F20001C4F20001086840F4D7
:1018A00080700860FFF7B6FB0390FFE747F2000087
:1018B000C4F200000068C00500280CD4FFE7FFF761
:1018C000A9FB0399401A652804D3FFE703208DF88C
:1018D00017004AE1EAE7FFE7FFE70498C06801283C
:1018E00009D1FFE741F22001C4F20201086840F08B
:1018F0000100086031E00498C06868B9FFE741F270
:101900002001C4F20201086820F0010008600868A4
:1019100020F0040008601FE00498C06805280DD17D
:10192000FFE741F22001C4F20201086840F0040020
:101930000860086840F0010008600CE041F22001F6
:10194000C4F20201086820F001000860086820F075
:1019500004000860FFE7FFE7FFE7FFE70498C068BF
:10196000E0B1FFE7FFF756FB0390FFE741F22000ED
:10197000C4F202000068800700280ED4FFE7FFF7DA
:1019800049FB0399401A41F28931884204D3FFE7A9
:1019900003208DF81700E8E0E8E71BE0FFF73AFBCB
:1019A0000390FFE741F22000C4F2020000688007C4
:1019B00000280ED5FFE7FFF72DFB0399401A41F2EF
:1019C0008931884204D3FFE703208DF81700CCE06B
:1019D000E8E7FFE79DF80700012809D1FFE741F29A
:1019E0001C01C4F20201086820F080500860FFE783
:1019F000FFE70498C069002800F0B380FFE741F2D8
:101A00000400C4F20200006800F00C00082800F096
:101A10008280FFE70498C06902285CD1FFE760215B
:101A2000C4F2422100200860FFF7F4FA0390FFE7B8
:101A300041F20000C4F202000068800100280CD5C9
:101A4000FFE7FFF7E7FA0399401A032804D3FFE7FB
:101A500003208DF8170088E0EAE70498006AB0F5E3
:101A6000803F0CD1FFE741F20401C4F20201086893
:101A700020F40030049A926810430860FFE741F2B6
:101A80000401C4F20201086820F47410049B1A6A6D
:101A90005B6A1A43104308606021C4F242210120AE
:101AA0000860FFF7B7FA0390FFE741F20000C4F2C5
:101AB00002000068800100280CD4FFE7FFF7AAFAB3
:101AC0000399401A032804D3FFE703208DF8170079
:101AD0004BE0EAE71EE06021C4F2422100200860EA
:101AE000FFF798FA0390FFE741F20000C4F202000A
:101AF0000068800100280CD5FFE7FFF78BFA0399F7
:101B0000401A032804D3FFE703208DF817002CE0C8
:101B1000EAE7FFE724E00498C069012804D1FFE761
:101B200001208DF8170020E041F20400C4F2020009
:101B300000680290029800F480300499096A884293
:101B400008D1FFE7029800F470100499496A8842AE
:101B500004D0FFE701208DF8170006E0FFE7FFE75C
:101B6000FFE700208DF81700FFE79DF8170006B08B
:101B700080BD000080B582B00190019800F034FE75
:101B800002B080BD81B000900098406B01B07047FA
:101B900080B586B004900391ADF80A20049890F8BF
:101BA0004200202848D1FFE7039820B1FFE7BDF8A5
:101BB0000A0020B9FFE701208DF8170040E00499E2
:101BC0000120086304990020486304980399BDF834
:101BD0000A2001F01BF98DF809000498006B012818
:101BE00021D1FFE7FFE7002001900498006800681A
:101BF000019004980068406801900198FFE7FFE7B2
:101C0000FFE70498006850E8030F40F010000090D0
:101C1000FFE700990498026842E803100028F0D119
:101C2000FFE7FFE703E001208DF80900FFE79DF8DB
:101C300009008DF8170003E002208DF81700FFE778
:101C40009DF8170006B080BD82B00190ADF802107B
:101C500002B0704781B0009001B0704781B0009031
:101C600001B0704781B0009001B0704781B0009022
:101C700001B0704780B592B011901198006800686B
:101C8000109011980068C0680F9011980068406922
:101C90000E9000200D900C90109800F00F000D9009
:101CA0000D9888B9FFE79DF84000800600280AD506
:101CB000FFE79DF83C008006002804D5FFE7119857
:101CC00000F090FFE9E1FFE70D98002800F0C280E6
:101CD000FFE79DF83800C00738B9FFE7BDF83C00C2
:101CE00010F4907F00F0B680FFE79DF84000C00739
:101CF00058B1FFE79DF83D00C00730B1FFE71199EB
:101D0000486C40F001004864FFE79DF84000400740
:101D100000280BD5FFE79DF83800C00730B1FFE77A
:101D20001199486C40F002004864FFE79DF84000BC
:101D3000800700280BD5FFE79DF83800C00730B1B9
:101D4000FFE71199486C40F004004864FFE79DF8F4
:101D500040000007002811D5FFE79DF83C008006F1
:101D6000002805D4FFE79DF83800C00730B1FFE731
:101D70001199486C40F008004864FFE71198406CE6
:101D8000002866D0FFE79DF84000800600280AD5AD
:101D9000FFE79DF83C008006002804D5FFE7119876
:101DA00000F020FFFFE7119800684069C0F3801041
:101DB0000C901198406C0007002804D4FFE70C98A1
:101DC00000283ED0FFE7119800F058FE11980068F7
:101DD0004069400600282FD5FFE7FFE7FFE711988D
:101DE000006850E8050F20F040000B90FFE70B99CA
:101DF0001198026842E805100028F0D1FFE7FFE7DC
:101E00001198C06B98B1FFE71198C16B42F6B90009
:101E1000C0F6000048631198C06BFEF7C3FC28B100
:101E2000FFE71198C06B416B8847FFE703E011980B
:101E3000816D8847FFE703E01198816D8847FFE7D0
:101E400006E01198816D8847119900204864FFE7EA
:101E5000FFE722E11198006B012840F0FE80FFE7C8
:101E60009DF84000C006002840F1F780FFE79DF88C
:101E70003C00C006002840F1F080FFE7FFE70020AB
:101E80000A901198006800680A90119800684068EC
:101E90000A900A98FFE711980068406940060028F8
:101EA00040F18180FFE71198C06B00684068ADF891
:101EB0002600BDF82600002874D0FFE7BDF82600F4
:101EC0001199898D88426DDAFFE7BDF826001199D6
:101ED000C8851198C06B8069202858D0FFE7FFE7BC
:101EE000FFE71198006850E8030F20F48070089015
:101EF000FFE708991198026842E803100028F0D122
:101F0000FFE7FFE7FFE7FFE71198006850E8050FDC
:101F100020F001000790FFE707991198026842E856
:101F200005100028F0D1FFE7FFE7FFE7FFE7119872
:101F3000006850E8050F20F040000690FFE7069982
:101F40001198026842E805100028F0D1FFE7FFE78A
:101F50001199202081F84200119900200863FFE7C1
:101F6000FFE71198006850E8030F20F0100005907B
:101F7000FFE705991198026842E803100028F0D1A4
:101F8000FFE7FFE71198C06BFEF7CEFBFFE7119963
:101F9000022048631198C26E818DC38DC91A89B21F
:101FA0009047FFE779E01199888DC98D401AADF807
:101FB00012001198C08D00284ED0FFE7BDF8120026
:101FC000002849D0FFE7FFE7FFE71198006850E8D5
:101FD000030F20F490700390FFE7039911980268B3
:101FE00042E803100028F0D1FFE7FFE7FFE7FFE733
:101FF0001198006850E8050F20F001000290FFE7FB
:1020000002991198026842E805100028F0D1FFE714
:10201000FFE71199202081F8420011990020086300
:10202000FFE7FFE71198006850E8030F20F0100069
:102030000190FFE701991198026842E80310002817
:10204000F0D1FFE7FFE71199022048631198C26EB3
:10205000BDF812109047FFE71FE09DF84000000612
:1020600000280AD5FFE79DF83C000006002804D5AB
:10207000FFE7119800F050FF0FE09DF84000400688
:1020800000280AD5FFE79DF83C004006002804D54B
:10209000FFE7119800F03CFDFFE712B080BD0000A3
:1020A00080B582B00090009820B9FFE701208DF83C
:1020B00007004EE00098806908B1FFE700E0FFE705
:1020C000009890F84100B0B9FFE70099002081F82E
:1020D0004000009800F04CFD0098006F38B9FFE711
:1020E000009942F25D10C0F600000867FFE7009813
:1020F000016F8847FFE70099242081F8410000988C
:102100000168C86820F40050C860009800F020FE04
:1021100000980168086920F49040086100980168FF
:10212000486920F02A00486100980168C86840F4B6
:102130000050C860009900204864009A202182F86D
:102140004110009A82F84210009948638DF8070008
:10215000FFE79DF8070002B080BD000080B590B099
:102160000F9000200E900D900C900B900F9800682F
:1021700043F60001C4F20101884239D1FFE7FFE7CD
:1021800041F21800C4F20200016841F4804101608C
:10219000006800F480400A900A98FFE7FFE741F2E8
:1021A0001800C4F20200016841F0040101600068F7
:1021B00000F0040009900998FFE74FF400700B90BD
:1021C00002200C9003200E9040F60000C4F20100A3
:1021D00005900BA90691FEF775FD059806994FF439
:1021E00080620B9200220C920D92FEF76BFD70E064
:1021F0000F98006844F20041C4F20001884267D1A0
:10220000FFE7FFE741F21C00C4F20200016841F45D
:1022100000310160006800F4003008900898FFE782
:10222000FFE741F21800C4F20200016841F0040126
:102230000160006800F0040007900798FFE70420A1
:102240000B9002200C9003200E9040F60000C4F288
:10225000010001900BA90291FEF734FD019802994B
:1022600008220B92002203920C920D92FEF72AFD97
:10227000039940F22000C2F2000004906C22C4F2E4
:1022800002020260416081608022C260016141619E
:10229000202181614FF40051C161FEF755FC18B156
:1022A000FFE7FEF73DFAFFE7FFE70F9840F2200156
:1022B000C2F20001C1630F984862FFE72620009038
:1022C00000221146FEF742FF0098FEF735FFFFE7B8
:1022D000FFE710B080BD000087B005908DF81310A7
:1022E000039200208DF80B00039848B9FFE7059989
:1022F000486C40F02000486401208DF81B0078E015
:10230000059890F84100202842D1FFE79DF813007E
:10231000014601910C2831D80199DFE801F0070B43
:102320000F13171B1F232F2F2F272B0003980599FF
:1023300088642CE003980599C86428E003980599FF
:10234000086524E003980599486520E003980599FD
:1023500088651CE003980599C86518E003980599FD
:10236000086614E003980599486610E003980599FB
:1023700008670CE003980599486708E00599486CE0
:1023800040F02000486401208DF80B00FFE72BE0AF
:10239000059890F84100E8B9FFE79DF81300014661
:1023A00000910B2804D0FFE700980C2804D007E028
:1023B0000398059908670CE003980599486708E0B9
:1023C0000599486C40F02000486401208DF80B000E
:1023D000FFE708E00599486C40F0200048640120C0
:1023E0008DF80B00FFE7FFE79DF80B008DF81B0051
:1023F000FFE79DF81B0007B07047000084B0029013
:10240000019100208DF80300019848B9FFE7029977
:10241000486C40F02000486401208DF80F002EE049
:10242000FFE7029890F84000012804D1FFE702205E
:102430008DF80F0023E00299012081F84000FFE7AA
:10244000FFE7029890F84100202804D1FFE70198A7
:102450000299C86608E00299486C40F02000486480
:1024600001208DF80300FFE7FFE70299002081F8C3
:102470004000FFE79DF803008DF80F00FFE79DF88F
:102480000F0004B07047000081B0009001B07047A9
:1024900081B0009001B0704780B58AB00890079174
:1024A000ADF81A20059300200290089890F841009A
:1024B000202840F08180FFE7079820B1FFE7BDF8B2
:1024C0001A0020B9FFE701208DF8270078E008996D
:1024D000002048640899212081F84100FEF79AFD08
:1024E0000290BDF81A0008998884BDF81A0008996E
:1024F000C88408988068B0F5805F09D1FFE7089824
:10250000006928B9FFE7002004900798039004E0D1
:102510000798049000200390FFE7FFE70898C08C1D
:1025200078B3FFE70898029B05996A4611608021FD
:10253000002200F03BFD40B1FFE70899202081F820
:10254000410003208DF827003AE0049858B9FFE7CE
:10255000039800886FF35F20089909684860039822
:102560000230039008E004980078089909684860F0
:10257000049801300490FFE70899C88C0138C8849A
:10258000CCE70898029B05996A4611604021002219
:1025900000F00CFD40B1FFE70899202081F84100D0
:1025A00003208DF827000BE00899202081F84100D6
:1025B00000208DF8270003E002208DF82700FFE7B8
:1025C0009DF827000AB080BD81B0009001B070472F
:1025D00081B0009001B07047FFE7FEE780B582B0A0
:1025E000FFE741F21400C4F20200016841F001016A
:1025F0000160006800F0010001900198FFE71020E1
:10260000009000221146FEF7A1FD0098FEF794FD10
:1026100002B080BD80B58AB0002009900890079074
:102620000690FFE741F21800C4F20200016841F091
:1026300020010160006800F0200005900598FFE788
:10264000FFE741F21800C4F20200016841F0040102
:102650000160006800F0040004900498FFE740F671
:102660000000C4F2010003900221029100220192B5
:10267000FEF7B8FC019A029903980691012307938B
:102680000892099106A9FEF71DFB0AB080BD000063
:1026900080B582B02520019000221146FEF756FD3C
:1026A0000198FEF749FD02B080BD000080B582B000
:1026B00040F26400C2F20000019043F60001C4F24F
:1026C000010101604FF4E131416000218160C1608E
:1026D00001610C2242618161C161FFF7E1FC18B127
:1026E000FFE7FEF71DF8FFE702B080BD80B582B0BE
:1026F00040F2DC00C2F20000019044F20041C4F25A
:102700000001016044F24021C0F20F01416000214C
:102710008160C16001610C2242618161C161FFF78A
:10272000BFFC18B1FFE7FDF7FBFFFFE702B080BD7C
:10273000FFE7FEE7FFE7FEE788B007900691059206
:10274000079800F0070004900498C0F107000528DE
:1027500003D3FFE70420019004E00498C0F10700D0
:102760000190FFE70198039004980430062803D8ED
:10277000FFE70020009003E0049803380090FFE793
:102780000098029006980399012202FA01F101399A
:102790000840029B984005999A40013A114008432D
:1027A00008B070477047000082B00190019840F275
:1027B0000001C2F200010968C90844F6D352C1F20F
:1027C0006202A1FB0221890948430090FFE700BF94
:1027D000FFE70098411E00910028F8D1FFE702B002
:1027E000704700007047000080B582B000900098EC
:1027F0000138B0F1807F03D3FFE70120019019E099
:10280000009801384EF21401CEF2000108604FF03A
:10281000FF300F2100F06AFC4EF21801CEF20001E9
:10282000002008604EF21002CEF200020721116073
:102830000190FFE7019802B080BD000080B5FEF76F
:10284000EFFB80BD80B590B006A800902821FDF771
:1028500082FC00980021059104910391029101915D
:10286000012206924FF4803107914FF40033089310
:102870000A9202220D920E914FF4E0110F91FEF791
:102880003BFE18B1FFE7FDF74BFFFFE70F2001907C
:1028900002210291002003904FF48062049205907F
:1028A00001A8FEF775FC18B1FFE7FDF739FFFFE758
:1028B00010B080BD7047000080B582B001900198D3
:1028C000406A009000990020C8850099C88400984B
:1028D000816D884702B080BD80B584B00390002030
:1028E00002900398406A0190019800684069C0B264
:1028F000C0090290019890F8410021280AD1FFE711
:10290000029838B1FFE701990020C884019800F0CF
:1029100013F9FFE7019800684069C0F38010029046
:10292000019890F8420022280AD1FFE7029838B1B6
:10293000FFE701990020C885019800F09FF8FFE7A4
:102940000199486C40F0100048640198816D8847F7
:1029500004B080BD80B586B005900598406A0490AB
:10296000059800680068800600285AD4FFE704999B
:102970000020C885FFE7FFE70498006850E8030FD0
:1029800020F480700390FFE703990498026842E8FE
:1029900003100028F0D1FFE7FFE7FFE7FFE7049807
:1029A000006850E8050F20F001000290FFE702994F
:1029B0000498026842E805100028F0D1FFE7FFE71D
:1029C000FFE7FFE70498006850E8050F20F040009B
:1029D0000190FFE701990498026842E80510002879
:1029E000F0D1FFE7FFE70499202081F84200049826
:1029F000006B012814D1FFE7FFE7FFE704980068A8
:102A000050E8030F20F010000090FFE700990498B1
:102A1000026842E803100028F0D1FFE7FFE7FFE774
:102A2000FFE70499002048630498006B012805D152
:102A3000FFE70498C26E818D904703E00498416DD2
:102A40008847FFE706B080BD80B582B0019001984D
:102A5000406A00900099012048630098006B0128AB
:102A600006D1FFE70098C26E818D4908904703E0C8
:102A70000098016D8847FFE702B080BD84B00390E5
:102A8000FFE7FFE70398006850E8030F20F4907019
:102A90000290FFE702990398026842E803100028B9
:102AA000F0D1FFE7FFE7FFE7FFE70398006850E892
:102AB000050F20F001000190FFE7019903980268DB
:102AC00042E805100028F0D1FFE7FFE70398006B0C
:102AD000012814D1FFE7FFE7FFE70398006850E8FB
:102AE000030F20F010000090FFE7009903980268A0
:102AF00042E803100028F0D1FFE7FFE7FFE7039962
:102B0000202081F8420003990020086304B0704738
:102B100080B582B0019001980168C86820F040003B
:102B2000C8600199202081F841000198C16C884754
:102B3000002002B080BD000082B00190FFE7FFE7F7
:102B40000198006850E8030F20F0C0000090FFE7F4
:102B500000990198026842E803100028F0D1FFE7CD
:102B6000FFE70199202081F8410002B07047000082
:102B700081B00090009942F2D150C0F60000886404
:102B8000009942F2C950C0F60000C864009942F2B0
:102B90009140C0F600000865009942F28940C0F6F5
:102BA00000004865009941F66D40C0F60000886558
:102BB000009941F65540C0F60000C865009941F6FD
:102BC0006540C0F600000866009941F65D40C0F619
:102BD00000004866009941F64940C0F60000C8660A
:102BE00001B0704780B586B00490049890F8420018
:102BF000222840F0A480FFE704988068B0F5805F49
:102C000015D1FFE70498006988B9FFE70020039019
:102C10000498806A02900498006840686FF35F200F
:102C2000029908800499886A0230886225E0049835
:102C3000806A03900020029004988068B0F5805F5D
:102C400008D0FFE70498806850B9FFE7049800694E
:102C500030B9FFE70498006840680399087007E0FE
:102C600004980068406800F07F0003990870FFE74F
:102C70000499886A01308862FFE70499C88D013899
:102C8000C8850004002856D1FFE704980168C86889
:102C900020F02000C86004980168C86820F48070A3
:102CA000C86004980168486920F0010048610499EF
:102CB000202081F842000499002048630498006BAA
:102CC000012830D1FFE7049900200863FFE7FFE700
:102CD0000498006850E8030F20F010000190FFE70F
:102CE00001990498026842E803100028F0D1FFE738
:102CF000FFE7049800680068C00600280ED5FFE7CB
:102D0000FFE7002000900498006800680090049895
:102D10000068406800900098FFE7FFE70498C26EE3
:102D2000818D904703E00498416D8847FFE70020BC
:102D30008DF8170007E000208DF8170003E002204F
:102D40008DF81700FFE79DF8170006B080BD000062
:102D500080B584B0039003980068006920F4405067
:102D6000039A1168D26810430861039988680A6958
:102D7000496910430843029003980068C06841F213
:102D80000C6188430299084303990968C860039855
:102D90000068406920F44070039A116892691043FA
:102DA00048610398006843F60001C4F201018842BB
:102DB00004D1FFE7FEF730FB019003E0FEF71AFBBA
:102DC0000190FFE7019819214843039A116852685E
:102DD0009200B0FBF2FC48F21F52C5F2EB12ACFBC2
:102DE00002304309642003FB10CC322000EB0C10AE
:102DF000A0FB0202F02000EA521000EB0310C2F325
:102E000043121044886004B080BD000080B588B0D3
:102E100007900691ADF81620069807998862BDF8CC
:102E2000160007998885079900204864079A22218F
:102E300082F842100799CA6B42F65511C0F600019C
:102E400091620799CA6B42F64921C0F60001D1622E
:102E50000799CA6B42F6D901C0F6000111630799C0
:102E6000C96B486306A8049007980168C06B0431D9
:102E7000049A1268BDF81630FDF7BEFEFFE7002089
:102E800003900798006800680390079800684068FE
:102E900003900398FFE707980069A0B1FFE7FFE7F9
:102EA000FFE70798006850E8030F40F48070029035
:102EB000FFE702990798026842E803100028F0D162
:102EC000FFE7FFE7FFE7FFE7FFE70798006850E845
:102ED000050F40F001000190FFE701990798026893
:102EE00042E805100028F0D1FFE7FFE7FFE7FFE722
:102EF0000798006850E8050F40F040000090FFE799
:102F000000990798026842E805100028F0D1FFE711
:102F1000FFE7002008B080BD83B00190019890F8D1
:102F2000410021283AD1FFE701988068B0F5805F21
:102F300013D1FFE70198006978B9FFE70198006AAB
:102F40000090009800886FF35F200199096848603D
:102F50000199086A0230086208E0019A106A411C6F
:102F600011620078019909684860FFE70199C88CEF
:102F70000138C884000468B9FFE701980168C8688F
:102F800020F08000C86001980168C86840F04000E7
:102F9000C860FFE700208DF80B0003E002208DF8E9
:102FA0000B00FFE79DF80B0003B0704780B586B0BB
:102FB000DDF820C0049003918DF80B200193FFE70A
:102FC00004980068006803990840401AB0FA80F03D
:102FD00040099DF80B1088424DD1FFE70898013059
:102FE000002847D0FFE7FEF715F80199401A089925
:102FF000884203D8FFE7089820B9FFE703208DF83F
:1030000017003CE004980068C0684007002830D5ED
:10301000FFE7039880282CD0FFE70398402828D0AA
:10302000FFE704980068006800F008010120B0EB99
:10303000D10F1DD1FFE7FFE7002000900498006842
:103040000068009004980068406800900098FFE7CE
:103050000498FFF713FD049908204864FFE70499DA
:10306000002081F84000FFE701208DF8170006E0FE
:10307000FFE7FFE7A4E700208DF81700FFE79DF8C2
:10308000170006B080BD000080B540F26400C2F2B7
:103090000000FEF7EFFD80BD80B540F2DC00C2F21B
:1030A0000000FEF7E7FD80BDFFE7FEE781B08DF889
:1030B00003009DF9030000280ED4FFE79DF90310DB
:1030C00001F01F02012090404A094EF20011CEF299
:1030D000000141F82200FFE701B070474EF60C50A6
:1030E000CEF200000068C0F30220704782B08DF875
:1030F000070000919DF9070000280AD4FFE7009817
:1031000000019DF907104EF20042CEF200028854F1
:103110000BE0009800019DF8071001F00F014EF63A
:103120001452CEF200028854FFE702B0704700004C
:1031300083B00290029800F0070000904EF60C5108
:10314000CEF200010868019001984FF6FF0210408E
:1031500001900198009A40EA02200022C0F2FA523F
:10316000104301900198086003B0704783B002904B
:103170008DF807100020ADF8040002200090FFE752
:1031800000989DF8071088420DDAFFE70298009931
:10319000415CBDF804000844ADF80400FFE7009866
:1031A00001300090ECE79DF8040080F0FF0003B0D0
:1031B0007047000085B003900020029001900090BD
:1031C000039840B1FFE70398006820B1FFE7039838
:1031D000406818B9FFE7002004901BE00398C0681E
:1031E000019003988068009001980099884208D364
:1031F000FFE703984068019A0099891A08440290F1
:1032000004E000980199401A0290FFE70298013803
:103210000490FFE7049805B07047000085B0039064
:103220000020029001900090039840B1FFE70398BE
:10323000006820B1FFE70398406818B9FFE7002055
:1032400004901AE00398C068019003988068009089
:1032500001980099884205D3FFE701980099401A28
:10326000029007E003984068009A0199891A08447F
:103270000290FFE702980490FFE7049805B07047BA
:1032800084B0029001910092029830B1FFE701985A
:1032900018B1FFE7009820B9FFE700208DF80F0074
:1032A00010E00299002008610099029A516001998A
:1032B000029A11600299C8600299886001208DF815
:1032C0000F00FFE79DF80F0004B0704780B586B08F
:1032D0000490039102920023019304980399029AA7
:1032E000EC46CCF8003001AB00F00CF818B1FFE769
:1032F0000198059002E000200590FFE7059806B0D0
:1033000080BD000080B58CB084460E98CDF828C0F2
:10331000099108920793ADF81A00002005900490D7
:103320000390099802900A9870B1FFE70A98006824
:1033300050B1FFE70A98406830B1FFE7099818B12B
:10334000FFE7089820B9FFE700208DF82F007EE006
:103350000A98FFF763FF0490049850B1FFE70498C0
:103360000899884209D2FFE7BDF81A00C00720B1CA
:10337000FFE700208DF82F0069E004980899884243
:1033800003D2FFE70498019002E008980190FFE75C
:10339000019808900A98806803900A9840680399F9
:1033A000401A0899884206D2FFE70A9840680399B4
:1033B000401A009002E008980090FFE700980590FE
:1033C00002980A990968039A1144059AFCF7AAFE23
:1033D00005990298084402900599039808440390BF
:1033E00005990898401A0890089848B1FFE7029894
:1033F0000A990968089AFCF795FE08980390FFE778
:1034000003980A994968884203D3FFE70020039094
:10341000FFE703980A998860FFE70A98006940B1BE
:10342000FFE70A9803690599089A0A44002198471A
:10343000FFE7FFE7079830B1FFE7059808990844D0
:1034400007990860FFE701208DF82F00FFE79DF83E
:103450002F000CB080BD000080B586B004900391B1
:1034600002920023019304980399029AEC46CCF847
:10347000003001AB00F00CF818B1FFE7019805909F
:1034800002E000200590FFE7059806B080BD00002F
:1034900080B58CB084460E98CDF828C0099108926A
:1034A0000793ADF81A000020059004900390099846
:1034B00002900A9870B1FFE70A98006850B1FFE7E0
:1034C0000A98406830B1FFE7099818B1FFE70898FB
:1034D00020B9FFE700208DF82F007EE00A98FFF763
:1034E00069FE0490049850B1FFE704980899884257
:1034F00009D2FFE7BDF81A00C00720B1FFE700209E
:103500008DF82F0069E004980899884203D2FFE7FC
:103510000498019002E008980190FFE70198089054
:103520000A98C06803900A9840680399401A08995D
:10353000884206D2FFE70A9840680399401A009033
:1035400002E008980090FFE7009805900A9800684C
:10355000039908440299059AFCF7E4FD059902983D
:103560000844029005990398084403900599089827
:10357000401A0890089848B1FFE70A980068029935
:10358000089AFCF7CFFD08980390FFE703980A9983
:103590004968884203D3FFE700200390FFE70398C0
:1035A0000A99C860FFE70A98006940B1FFE70A98E6
:1035B00003690599089A0A4401219847FFE7FFE744
:1035C000079830B1FFE70598089908440799086003
:1035D000FFE701208DF82F00FFE79DF82F000CB0CA
:1035E00080BD00002DE9F04FADB000202C90FDF71C
:1035F00025FDFFF727F9FFF70DF8FEF7EFFFFFF7BF
:1036000055F8FFF773F8FFF743F800F0FBF940F2C5
:103610000400C2F200002990022100F01DFAADF86A
:10362000AE0040F2B061C2F20001BDF8AE00088009
:1036300040F25840C2F2000010F8554F199010F8AF
:10364000052C10F8043C10F8031C269110F802CC4D
:1036500010F801EC45788678C77890F8048090F8E7
:10366000059090F806A090F807B0017A2591417A6C
:103670002491817A2391C17A2291017B2191417B0E
:103680002091817B1F91C17B1E91017C1D91417C0A
:103690001C91817C1B91C17C1A91604410F8021C22
:1036A00068462790C1651A98279988651B992798BD
:1036B00041651C98279908651D992798C1641E9833
:1036C000279988641F99279841642098279908644E
:1036D00021992798C163229827998863239927986D
:1036E000416324982799086325992798C1622698F1
:1036F0002799C1F828B0C1F824A0C1F82090C1F8DA
:103700001C808F614E610D61CC60C1F808E0C1F88A
:1037100004C0086040F25410C2F200002A9044F63F
:10372000CA01C0F6000100F039FC2A9800F02CF91B
:10373000DDF8A4C02A98BCF90020BCF90230BCF91D
:103740000410BCF906E0EC46CCF804E0CCF800101C
:1037500044F60E11C0F60001289100F01FFC2A98D3
:1037600000F012F928992A98DDF8A4E0BEF90820A3
:10377000BEF90A30BEF90CC0BEF90E40EE46CEF8D6
:103780000440CEF800C000F009FC2A9800F0FCF8D4
:10379000FFE7FEE780B582B001900199087E496895
:1037A00009684968401A0090009840F25431C2F20A
:1037B0000001096888423ED0FFE70198807C98BBF1
:1037C000FFE7009840F25431C2F2000109688842D4
:1037D0000FD9FFE7019901F13800496940F25432ED
:1037E000C2F2000213681944009AD21AFFF734FE9D
:1037F00019E0019A02F13800516940F25433C2F2E3
:1038000000031B681944127ED21AFFF725FE0098A8
:1038100040B1FFE7019901F138004969009AFFF7CB
:103820001BFEFFE7FFE7FFE7009840F25431C2F2CA
:1038300000010860FFE702B080BD000080B586B0DF
:103840000590049103928DF80B3005984FF4167192
:10385000FCF781FC9DF80B00059908720498059906
:103860000860039805994860059943F6FD50C0F635
:103870000000C1F85002059943F6C900C0F60000E7
:10388000C1F85402059940F25320C2F20000486189
:103890000598FF220192027605990A20C8600599D1
:1038A000C8610598203040F2B261C2F20001FFF712
:1038B000E7FC019A0598383040F25831C2F2000115
:1038C000FFF7DEFC06B080BD80B582B00190019AA2
:1038D00010685169127EFEF75BF902B080BD0000EE
:1038E000D0B502AF88B040F25840C2F2000020309C
:1038F000FFF794FC47F8100C57F8100C694647F88E
:10390000141CC11D21F007026946891A8D4647F82B
:10391000201C47F8180C57F8100C28B3FFE757F88D
:10392000201C57F8102C40F25840C2F2000047F813
:10393000240C2030FFF7CAFC57F8201C57F8240C41
:10394000D0F8503237F8102C984730B1FFE70120FB
:1039500007F8090C47F81C0C0CE0002007F8090CCC
:10396000012047F81C0C05E0012007F8090C47F876
:103970001C0CFFE757F8140C854617F8090CA7F143
:103980000804A546D0BD000080B582B00190FFE7D5
:103990000198007870B1FFE7019940F26400C2F22B
:1039A000000001224FF0FF33FEF776FD0198013051
:1039B0000190EDE702B080BD80B582B00190ADF816
:1039C00002100198006844F20041C4F200018842EC
:1039D00016D1FFE70198FEF7D5F8022807D8FFE7D0
:1039E00040F25840C2F20000FFF7D4FE00E0FFE7CB
:1039F00040F25840C2F20000D0F854128847FFE766
:103A000002B080BD80B582B040F25840C2F20000E2
:103A1000019040F2DC01C2F20001009140F220026C
:103A2000C2F200020023FFF709FF0198006843F685
:103A30000552C0F600020421FEF74EFC009843F642
:103A4000B911C0F60001FEF7D9FC0198D0F8541264
:103A5000884702B080BD0000D0B502AF96B047F8ED
:103A6000100C07F8111C17F8112CD000014647F86C
:103A7000381C694647F8241C6946A1EBC2018D46F3
:103A800047F8341C47F8280C17F8110C1F2814DBD2
:103A9000FFE7FF2007F8130C002007F8120C17F8B7
:103AA000120C40F0400007F8120C37F8130C27F8FE
:103AB0000A0C012047F82C0C1BE1002007F82D0C04
:103AC000FFE717F82D0C17F8111C884280F20281CD
:103AD000FFE757F8100C17F82D1C10F8310007F805
:103AE000140C57F8100C17F82D1C00EBC10080784F
:103AF00007F8150C57F8100C17F82D1C00EBC10037
:103B0000808827F8180C57F8100C17F82D1C00EBBC
:103B1000C100C08827F81A0C17F8150CB0F1FF3F48
:103B200004DCFFE7002047F83C0C12E017F8150C06
:103B3000FF2804DBFFE7FE2047F8400C04E017F8FD
:103B4000150C47F8400CFFE757F8400C47F83C0CC1
:103B5000FFE757F83C0C07F8150C37F9180C4FF233
:103B6000B721CFF6FF71884207DCFFE74FF2B8209C
:103B7000CFF6FF7047F8440C15E037F9180C40F603
:103B80004951884205DBFFE740F6485047F8480CAA
:103B900004E037F9180C47F8480CFFE757F8480CD1
:103BA00047F8440CFFE757F8440C27F8180C37F98E
:103BB0001A0C10F5F04F07DCFFE748F60100CFF6CE
:103BC000FF7047F84C0C14E037F91A0CB0F5F04FC1
:103BD00005DBFFE747F2FF7047F8500C04E037F9C8
:103BE0001A0C47F8500CFFE757F8500C47F84C0CEC
:103BF000FFE757F84C0C27F81A0C37F91A0CB0F1FC
:103C0000FF3F08DCFFE737F91A0C404240F4004060
:103C100047F8540C04E037F91A0C47F8540CFFE746
:103C200057F8540C27F81E0C37F9180CB0F1FF3F69
:103C300008DCFFE737F9180C404240F4004047F831
:103C4000580C04E037F9180C47F8580CFFE757F800
:103C5000340C57F8581C27F81C1C17F8141C17F8BC
:103C60002D2C00F8321017F8151C17F82D2C00EB2E
:103C7000C202517037F81E1C17F82D2C00EBC20041
:103C8000821CC31C40F25840C2F2000047F85C0C92
:103C900000F01AF957F8342C57F85C0C17F82D1C63
:103CA00002EBC1030021197117F82D3C02EBC3038D
:103CB000597137F81C1C17F82D3C02EBC3039A1DF1
:103CC000073300F001F9FFE717F82D0C013007F872
:103CD0002D0CF6E657F8341C57F8380CC2B22920E0
:103CE000072300F01BF827F80A0C012047F82C0CDA
:103CF000FFE757F8240C854637F80A0CA7F10804AB
:103D0000A546D0BD80B582B0019040F25840C2F2C5
:103D10000000D0F85412884702B080BDD0B502AF81
:103D200088B007F80B0C47F8101C07F8112C07F89F
:103D3000123C17F8110C023007F8140C17F8140C89
:103D4000014647F8281C694647F8181CC11D21F098
:103D500007026946891A8D460A4647F8242C47F817
:103D60001C0C17F80B0C087017F8120C4870FE208A
:103D700007F80A0C002007F8090C07F81D0CFFE7EC
:103D800017F81D0C17F8111C884210DAFFE757F8D6
:103D9000242C57F8100C17F81D1C405C1144887037
:103DA000FFE717F81D0C013007F81D0CE8E757F87E
:103DB000242C57F8280CC3B2FE20832100F0A2F86F
:103DC00038B1FFE717F8090C40F0400007F8090C7C
:103DD000FFE7FFF785FD38B1FFE717F8090C40F062
:103DE000400007F8090CFFE757F8180C854637F82C
:103DF0000A0CA7F10804A546D0BD000080B584B028
:103E000003900291ADF80620039B0299BDF80620AD
:103E10001868DB68FEF740FB04B080BD80B584B055
:103E200084460698CDF80CC08DF80B108DF80A204A
:103E300001938DF803000399FF2081F85000039946
:103E400081F851009DF80B00039981F852009DF80C
:103E500003000230039981F853009DF80A0003998A
:103E600081F85400039890F8530004308DF8020054
:103E700000208DF80100FFE79DF801009DF8031078
:103E800088420FDAFFE701989DF80120805C0399D2
:103E9000114481F85500FFE79DF8010001308DF8CD
:103EA0000100E9E7039850309DF802100139C9B2CA
:103EB000FFF75CF903999DF80320114481F8550040
:103EC0009DF8020004B080BD84B00390ADF80A10E4
:103ED000019200930398007A48B1FFE79DF80B0028
:103EE00001990870BDF80A000099087008E09DF873
:103EF0000B0000990870BDF80A0001990870FFE7EF
:103F000004B0704780B586B08DF816008DF8151096
:103F100004928DF80F309DF81600FF2804DBFFE7B0
:103F200001208DF8170035E09DF81510481E02910C
:103F3000062805D3FFE702988238012801D8FFE759
:103F400003E001208DF8170024E09DF816109DF87D
:103F50001520049B9DF80F00EC46CCF8000040F2C1
:103F60005840C2F200000190FFF758FF01998DF808
:103F70000E009DF80E2001F120005031FFF76CFA81
:103F800020B9FFE701208DF8170003E000208DF82D
:103F90001700FFE79DF8170006B080BD0FB4084B6F
:103FA00010B504A902AA039800F0DEF8044602A99D
:103FB000002000F070FC204610BC5DF814FB0000EF
:103FC0009748000802E008C8121F08C1002AFAD169
:103FD00070477047002001E001C1121F002AFBD189
:103FE000704700002DE9FF5F82B00021DDE9043059
:103FF000020DDDF840B0034318D044F61050A2F291
:10400000FF3242431514119801281FD0A5EB0B0075
:10401000401C5FEA000A4FF000064E4FDFF838916F
:10402000B046504615D5CAF1000413E0119801249A
:104030004AA3012801D16FEA0B010298119AC0E945
:104040000031C0E9024206B0BDE8F09FCBF10000AC
:10405000DFE704460021404A491842EB0450CDE90D
:10406000001012E0E00707D032463B464046494682
:10407000FCF76AF98046894632463B4610461946A7
:10408000FCF762F906460F466410002CEAD1DDE920
:104090000401DDE90023BAF1000F06DAFCF754F958
:1040A00042464B46FCF750F905E0FCF7BFF94246A3
:1040B0004B46FCF7BBF904460E460022284BFCF7A2
:1040C0003DFA03D84FF0FF30014607E00022254BB0
:1040D00020463146FCF791F8FCF717FA102409E066
:1040E000002C0ADB0A220023FCF756F8039B30322F
:1040F0001A55641E50EA0102F2D1641C039AC4F1FD
:1041000011031444119A012A03D0012208430DD14E
:104110000AE0084304D000204FF0110B119072E721
:10412000A3EB0B056D1E0DE05B4504DD4FF00002B7
:1041300005F1010504E003DA4FF00002A5F10105E5
:10414000002AECD002981199C0E90231C0E900457B
:1041500079E70000000014400000F03F300000004C
:104160000000F0430000E03F2DE9FF4F95B09B4673
:104170008946064600250FE2252877D100242746E8
:10418000F84A0121059400E0044316F8013F203B62
:1041900001FA03F01042F7D130782A2811D06FF0DD
:1041A0002F033078A0F13002092A16D8059A44F07E
:1041B000020402EB820203EB42021044761C0590DB
:1041C000EFE759F8042B0592002A03DA504244F431
:1041D0000054059044F00204761C30782E2816D145
:1041E00016F8010F44F004042A280DD06FF02F02B6
:1041F0003078A0F13003092B09D807EB870302EBD5
:104200004303C718761CF3E759F8047B761C307813
:104210006C280FD006DC4C2817D068280DD06A28EF
:1042200014D104E0742810D07A280FD10DE044F4A2
:1042300000140AE044F4801401E044F4401472785D
:10424000824202D104F58014761C761C30786628F0
:104250000BD013DC582877D009DC002875D045280E
:10426000F6D04628F4D047281AD19DE118E06328FB
:1042700035D0642879D0652812D195E1702873D0A3
:1042800008DC6728F1D069286FD06E280DD06F2820
:1042900006D1B5E073282CD0752875D0782874D055
:1042A0005A46179990476D1C75E1C4F302500228D5
:1042B00009D003280DD0D9F8001004280DD00D60C6
:1042C00009F1040967E1D9F80010EA17C1E90052C1
:1042D000F6E7D9F800100D80F2E70D70F0E719F855
:1042E000041B8DF8001000208DF80100EA46012023
:1042F00003E059F804AB4FF0FF3061074FF00001C5
:1043000002D40DE008F101018846B9420FDA804578
:10431000F8DB1AF808100029F4D108E008F10101CF
:1043200088468142FADB1AF808100029F6D1059870
:104330005B46A0EB080721463846179A00F094FA2E
:10434000284400EB080507E04DE029E10DE01AF8EC
:10435000010B5A4617999047B8F10108F7D25B460E
:1043600021463846179A13E142E00A220092C4F32C
:1043700002524FF0000A022A08D059F804CB032A4F
:104380004FEAEC710AD00DE029E02AE009F10701BB
:1043900021F00702F2E802C1914609E00FFA8CFC15
:1043A0004FEAEC71042A03D14FFA8CFC4FEAEC710E
:1043B000002907DA0A460021DCF1000C61EB02015A
:1043C0002D2202E0220504D52B228DF804200122A3
:1043D00003E0E20701D02022F7E7904659E00A21E6
:1043E00002E010220DE010214FF0000A00910BE0D6
:1043F00010224FF0000A44F004040827009203E062
:1044000008224FF0000A0092C4F30252022A05D09B
:1044100059F804CB0021032A08D009E009F107016B
:1044200021F00702F2E802C1914605E01FFA8CFC78
:10443000042A01D10CF0FF0C4FF00008220728D508
:10444000702806D0009B83F0100353EA0A0305D0BE
:104450000EE040228DF80420012208E05CEA01020F
:1044600006D030228DF804208DF8050002229046F7
:10447000009B83F0080353EA0A030AD15CEA0102B5
:1044800001D1620705D530228DF804204FF00108D4
:104490007F1E582804D034A003900EA802900DE08F
:1044A00036A0F9E753466046009AFBF775FE84464E
:1044B0000398825C0298401E029002705CEA010040
:1044C000F0D1029806A9081A00F1200A600702D567
:1044D00024F4803400E00127574502DDA7EB0A00F1
:1044E00000E0002000EB0A01009005984144401ACA
:1044F0000590E00306D45B462146179A059800F024
:10450000B3F90544002706E001A85A46C05D179993
:1045100090476D1C7F1C4745F6DBE0030CD55B46DE
:104520002146179A059800F09FF9054404E03020D1
:104530005A46179990476D1C0099481E0090002913
:10454000F5DC08E0029802995A460078491C02916D
:10455000179990476D1CBAF10001AAF1010AF1DC2C
:1045600065E1000009280100303132333435363737
:1045700038396162636465660000000030313233AF
:10458000343536373839414243444546000000004F
:1045900000F058F90544761C307800287FF4ECAD23
:1045A00019B02846BDE8F08F620700D4062709F14C
:1045B000070222F0070CFCE80223E14603F0004862
:1045C0005FEA080C02D00FF2702C0DE05FEA045C89
:1045D00002D50FF2682C07E05FEAC47C02D00FF22C
:1045E000602C01E0AFF2700C4FF0FF3823F0004375
:1045F000CDF850C065280CD006DC452809D04628E7
:104600001DD047283DD13DE0662818D067287ED1CF
:1046100038E00021112F01DB112000E0781CCDE9EA
:10462000000106A90EA8FFF7DDFCDDE90F010E9AD7
:1046300003910021009207F1010A04914DE04FF02F
:1046400000400097CDE9011006A90EA8FFF7CAFCAB
:10465000DDE90F0203920E9B11990022DDF80CA0F8
:104660000093049211B9791C00EB010AB7EB0A0020
:1046700004D4C0F1FF3007F1010A0490AAEB07004F
:10468000019044E0012F00DA01270021112F01DD04
:10469000112000E03846CDE9000106A90EA8FFF779
:1046A000A1FCDDE90F010E9A039100210491009213
:1046B000BA4621070CD40399514500DA8A46BAF16B
:1046C000010F05DD009AAAF10101515C302908D0E3
:1046D000B84202DA10F1040F06DA0121CDE9011027
:1046E00015E0AAF10101E9E7002805DC049901447D
:1046F0000491AAEB000102E0411C514500DD8A460D
:104700000499401A401C01904FF00040029020078D
:1047100004D40198504501DBCDF8048000208DF8C9
:104720004F0002980DF14F07B0F1004F25D02B201C
:104730000E9002984FF0020800280CDA40420290D6
:104740002D200E9007E00A210298FBF70FFD303173
:10475000029007F8011DB8F10001A8F10108F2DC90
:1047600002980028EFD1791E0E980870307800F07A
:10477000200040F0450007F8020D12A8C01B00F110
:1047800007081498007800B1012000EB0A01019895
:1047900001EBE07105984144401A401E0590E0038A
:1047A00006D45B462146179A059800F05DF805444B
:1047B0001498007818B15A46179990476D1CE00379
:1047C00024D55B462146179A059800F04DF805441C
:1047D0001CE00498002807DBDDE90301884203DDC3
:1047E0000098405C179901E0179930205A4690478D
:1047F000049805F10105401C04900198401E0190A9
:1048000004D12E205A46179990476D1CBAF1000129
:10481000AAF1010ADDDC05E017F8010B5A461799E9
:1048200090476D1CB8F10001A8F10108F4DC5B466B
:104830002146179A0598ABE62D0000002B000000DA
:10484000200000002DE9F041044600251E461746D1
:10485000880404D405E039462020B0476D1C641E4E
:10486000F9D52846BDE8F0812DE9F0410446002540
:104870001E469046C80301D5302700E02027880453
:1048800004D505E041463846B0476D1C641EF9D595
:104890002846BDE8F0810A68531C0B601070704711
:1048A00000000000000000000102030406070809E0
:1048B00000000000010203040203040506070809C2
:1048C0000A0B0C0D0E0F1010010254583A255820F7
:1048D00025582025582025582025582025582025A2
:1048E000582025582025582025582025582025585F
:1048F0002025582025582025582025582025582087
:1049000025582025582025582025580D0A00536584
:1049100072766F49443A2568752C546172676574E4
:104920005F4163633A2568752C5461726765745FF3
:1049300053706565643A2568752C546172676574B7
:104940005F506F733A2568750D0A000070490008C2
:104950000000002020000000C43F0008904900082B
:1049600020000020980B0000D43F00080000000049
:1049700000127A0001000000E803FF0F02000000AF
:10498000E803FF0F0100000010000000000000001D
:04000005080000ED02
:00000001FF
